:0A0FA000000102020303040405052A
:10059700E4F513F512F511F510C203C200C202C249
:1005A700011208547E0A7F008E4D8F4E75550A75CD
:1005B7005612754B0A754C1C75530A75544A755774
:1005C7000A755878EE54E070030206E37514007557
:1005D70015808E168F17C374A29FFF740A9ECF24AF
:1005E70002CF3400FEE48F0F8E0EF50DF50CF50BE0
:1005F700F50AF509F508AF0FAE0EAD0DAC0CAB0B58
:10060700AA0AA909A808C3120F53502AE515250BF2
:10061700F582E514350AF58374CDF0E4FAF9F8E5C7
:100627000B2401F50BEA350AF50AE93509F509E85E
:100637003508F50880C0E4F50BF50AF509F508AFAC
:100647000FAE0EAD0DAC0CAB0BAA0AA909A808C3D7
:10065700120F535035AE0AAF0BE5172FF582E5168B
:100667003EF583E0FDE5152FF582E5143EF583EDB4
:10067700F0E4FAF9F8EF2401F50BEA3EF50AE9355B
:1006870009F509E83508F50880B585144D85154E37
:1006970074002480FF740A34FFFEC3E5569FF556A5
:1006A700E5559EF555C3E5509FF550E54F9EF54F2F
:1006B700C3E5529FF552E5519EF551C3E54C9FF5B1
:1006C7004CE54B9EF54BC3E5549FF554E5539EF51A
:1006D70053C3E5589FF558E5579EF557D2E843D8D9
:1006E7002090E668E04409F090E65CE0443DF0D2F3
:1006F700AF90E680E020E105D206120DEF90E6808C
:10070700E054F7F0538EF8C203300105120080C29F
:10071700013003291208FD5024C203120E7620006F
:100727001690E682E030E704E020E1EF90E682E011
:1007370030E604E020E0E4120E1E1209FD1208FF65
:0207470080C769
:01074900228D
:1000800090E6B9E0700302015B14700302020424DD
:10009000FE700302029924FB7003020155147003E1
:1000A00002014F147003020143147003020149243A
:1000B000056003020305120FCC400302031190E612
:1000C000BBE024FE602C14604724FD6016146031F0
:1000D00024067065E54D90E6B3F0E54E90E6B4F089
:1000E000020311E55590E6B3F0E55690E6B4F00250
:1000F0000311E54F90E6B3F0E55090E6B4F002034B
:1001000011E55190E6B3F0E55290E6B4F002031128
:1001100090E6BAE0FF120E4AAA06A9077B01EA4957
:10012000600DEE90E6B3F0EF90E6B4F002031190AC
:10013000E6A0E04401F002031190E6A0E04401F0E3
:10014000020311120F41020311120FBC020311121C
:100150000FB4020311120F2F020311120FCE40032E
:1001600002031190E6B8E0247F602B14603C240267
:1001700060030201FAA200E433FF25E0FFA202E4DB
:10018000334F90E740F0E4A3F090E68AF090E68BDE
:100190007402F0020311E490E740F0A3F090E68AC5
:1001A000F090E68B7402F002031190E6BCE0547EFE
:1001B000FF7E00E0D3948040067C007D0180047CBB
:1001C000007D00EC4EFEED4F24A0F582740F3EF54D
:1001D00083E493FF3395E0FEEF24A1FFEE34E68F36
:1001E00082F583E0540190E740F0E4A3F090E68AC2
:1001F000F090E68B7402F002031190E6A0E0440157
:10020000F0020311120FD0400302031190E6B8E090
:1002100024FE601D2402600302031190E6BAE0B4DC
:100220000105C20002031190E6A0E04401F00203C0
:100230001190E6BAE0705990E6BCE0547EFF7E0073
:10024000E0D3948040067C007D0180047C007D002A
:10025000EC4EFEED4F24A0F582740F3EF583E4933F
:10026000FF3395E0FEEF24A1FFEE34E68F82F583A5
:10027000E054FEF090E6BCE05480FF131313541FCB
:10028000FFE0540F2F90E683F0E04420F0020311CA
:1002900090E6A0E04401F08078120FD2507390E60F
:1002A000B8E024FE60202402706790E6BAE0B40152
:1002B00004D200805C90E6BAE06402605490E6A04C
:1002C000E04401F0804B90E6BCE0547EFF7E00E00D
:1002D000D3948040067C007D0180047C007D00EC8E
:1002E0004EFEED4F24A0F582740F3EF583E493FF9C
:1002F0003395E0FEEF24A1FFEE34E68F82F583E034
:100300004401F0800C120319500790E6A0E044016C
:08031000F090E6A0E04480F04B
:0103180022C2
:030033000209F9C6
:0409F90053D8EF32AE
:100E1E0090E682E030E004E020E60B90E682E030DF
:100E2E00E119E030E71590E680E04401F07F147E92
:0C0E3E00001209B890E680E054FEF0229B
:100E760090E682E044C0F090E681F04387010000EE
:040E86000000002246
:100DEF0030060990E680E0440AF0800790E680E044
:100DFF004408F07FDC7E051209B890E65D74FFF0C1
:0F0E0F0090E65FF05391EF90E680E054F7F02209
:020E4A00A907F6
:100E4C00AE57AF588F828E83A3E064037017AD0149
:100E5C0019ED7001228F828E83E07C002FFDEC3E19
:090E6C00FEAF0580DF7E007F006F
:010E7500225A
:1009B8008E188F1990E600E05418700DE518C313CF
:1009C800F518E51913F519801590E600E05418FF9D
:1009D800BF100BE51925E0F519E51833F518E519E9
:1009E8001519AE18700215184E6005120E8A80EEA1
:0109F80022DC
:100E8A007400F58690FDA57C05A3E582458370F97B
:010E9A002235
:03004300020900AF
:030053000209009F
:10090000020EBF00020F0500020EEF00020ED7001C
:10091000020DB900020D42000209FF00020FD400CF
:10092000020FD500020FD600020FD700020FD80029
:10093000020FD900020FDA00020FDB00020FDC0009
:10094000020FDD00020FD400020FDE00020FDF00F5
:10095000020FE000020FE100020FE200020FE300CD
:10096000020FE400020FD400020FD400020FD400E3
:10097000020FE500020FE600020FE700020FE80099
:10098000020FE900020FEA00020FEB00020FEC0079
:10099000020FED00020FEE00020FEF00020FF00059
:1009A000020FF100020FF200020FF300020FF40039
:0809B000020FF500020FF60032
:100A00001201000200000040D70B12A000000102FA
:100A100000010A06000200000040010009022E0049
:100A200001010080320904000004FF0000000705F6
:100A30000202000200070504020002000705860208
:100A40000002000705880200020009022E000101D1
:100A50000080320904000004FF00000007050202C4
:100A60004000000705040240000007058602400020
:100A70000007058802400000040309041603530020
:100A8000740065006C006C00610072004E0065002F
:100A9000740010035500530042003200450050001E
:040AA0005000000002
:100AA4006080100001083A010404040702020300F4
:100AB40000001000FBFAFAFFFFFFFFFF000900002F
:100AC4001B2D3F3F0101083B040404070000000301
:100AD40000001000FFFEFEFEFFFFFFFF00121200E9
:100AE4001B2D3F3F0108390120202007020203008B
:100AF40000000000FBF9F9FFFFFFFFFF09090000F8
:100B0400002D363F010408220838200701000001A7
:100B140002010000FFFFFDFDFFFFFFFF3609120089
:0E0B2400002D363F471080200000FF061B11F9
:10074A00C20690E60174CEF090E6F574FFF09010C0
:10075A0080E090E6F3F0901081E090E6C3F090100C
:10076A0082E090E6C1F0901083E090E6C2F090102B
:10077A0085E090E6C0F0901086E090E6F4F07F7F86
:10078A007EE4E4FDEF1FAA0670011EF5828A83E467
:10079A00F00DBD80EF75181075197F7EE47F7FE438
:1007AA00FD851982851883E0FC60058F828E83F0AF
:1007BA00EF1F70011EE5191519700215180DBD807D
:1007CA00E020063AD20675181075197F7EE47F7FFD
:1007DA00E4FDEDC3948050E9851982851883E0FC15
:1007EA008F828E83E06C6006ECF0C20680D3EF1F26
:1007FA0070011EE5191519700215180D80D490E6BE
:10080A007174FFF090E672E04480F0E490E6C4F080
:10081A0090E6C5F090E6C37487F0E490E6C6F090DF
:10082A00E6CAF090E6C7F090E6C8F090E6C9F09004
:10083A00E6CB7420F090E6CC7401F090E6CD04F09B
:09084A00E490E60CF090E67FF06A
:010853002282
:0A0B3200012200014800C105C104C2
:1008540090E600E054E74410F090E6827404F090CF
:10086400E601E04440F090E61374A0F0000000902C
:10087400E61574E0F000000090E6187404F000003F
:100884000090E619F000000090E61AF000000090D5
:10089400E61B7408F000000090E6EA7402F0000021
:1008A4000090E6047480F00000007408F00000007A
:1008B400E4F000000043AF01D20012074A75B50A04
:1008C40075B00875B2FE75800275B4FFE4F5A075C5
:1008D400B6FFF5B190E680E030E70F90E6267402AB
:1008E400F0000000E490E627F022E490E626F00011
:0908F400000090E6277440F02298
:0108FF0022D6
:0208FD00D32204
:0209FD00D32203
:020FCC00D3222E
:080FB40090E6BAE0F546D322F5
:100F2F0090E740E546F0E490E68AF090E68B04F017
:020F3F00D322BB
:080FBC0090E6BAE0F521D32212
:100F410090E740E521F0E490E68AF090E68B04F02A
:020F5100D322A9
:020FCE00D3222C
:020FD000D3222A
:020FD200D32228
:0F0F740090E6787480F090E679EFF0120FC422C7
:100E9B0090E678E020E6F97FA27E00120F7490E6D0
:100EAB0078E04440F090E678E020E6F990E678E0D0
:030EBB0030E1E43F
:010EBE002211
:080FC40090E678E030E0F9222C
:080CF6008E198F1A8C1B8D1C56
:100CFE0090E678E020E6F97FA27E00120F7490E66F
:100D0E0079E51AF0120FC490E679E51CF0120FC4C3
:100D1E00E4FFFE74242FF8E690E679F0120FC40F6C
:100D2E00BF00010EEF64204E70E990E6787440F03B
:030D3E00120E9BF7
:010D4100228F
:080BC9008E198F1A8C1B8D1C84
:100BD1007FA27E00120F7490E679E51AF0120FC41D
:100BE10090E679E51CF0120FC47FA37E00120F740A
:100BF10090E679E0751D00F51E120FC4E4FF90E642
:100C010079E0FE74242FF8A606120FC40FBF1EEE62
:100C110090E678E04420F090E679E0F542120FC4C6
:0C0C210090E6787440F090E679E0F5432E
:010C2D0022A4
:1003190090E6B9E0244D606D1470030203FF147078
:100329000302044E14700302049214700302052898
:100339002405600302059390E6F574FFF0000000C0
:1003490090E6047480F00000007408F0000000E4F6
:10035900F0000000E522700EF54775456475230429
:1003690075221F120C2E7F7F120F8390E74074B203
:10037900F0E490E68AF090E68B04F090E6A0E04481
:1003890080F002059590E6F4E030E14A90E6F574D4
:10039900FFF00000007F77120F837FF7120F839021
:1003A900E6047480F00000007408F0000000E4F036
:1003B90000000090E6D07410F0E490E6D1F07F7769
:1003C900120F8390E6ECE0901087F000000090E7B0
:1003D900417401F08005E490E741F090E74074B37F
:1003E900F0E490E68AF090E68B7402F090E6A0E0E3
:1003F9004480F0020595E490E68BF0F544E5BA30C7
:10040900E00FC3E5449410748094A7500405448018
:10041900ECE5BA20E01590E740E0F547A3E0F545A3
:10042900A3E0F523A3E0F522120C2E90E74074B463
:10043900F0E490E68AF090E68B04F090E6A0E044C0
:1004490080F0020595AF4A7E00AD497C00120BC9C8
:10045900E4F54474242544F8E6FF74412544F58203
:10046900E434E7F583EFF00544E544B420E590E78B
:100479004074B5F0E490E68AF090E68B7421F09030
:10048900E6A0E04480F0020595E490E68BF0F5449F
:10049900E5BA30E00FC3E54494E8748094835004CE
:1004A900054480ECE5BA20E05790E740E0F54AA31F
:1004B900E0F549A3E0F5186445704BF5447443250C
:1004C90044F582E434E7F583E0FF74242544F8A673
:1004D900070544E544B420E590E678E05418600B3C
:1004E900AF4A7E00AD497C00120CF6E4F518F544DC
:1004F90074242544F876550544E544B420F2800671
:10050900E4F54A75492090E74074B6F0E490E68A2C
:10051900F090E68B04F090E6A0E04480F0806DE472
:1005290090E68BF0F544E5BA30E00FC3E54494104A
:10053900748094A75004054480ECE5BA20E0329019
:10054900E740E0F544A3E0F523E54414600F1460A7
:100559001114601324037019120D7F8014120D7F7A
:10056900800F120C92800AE523D39420400375482A
:100579000190E74074B7F0E490E68AF090E68B04C6
:0D058900F090E6A0E04480F08002D322C391
:010596002242
:100C2E007F74120F830000000000007F77120F8385
:100C3E007F3E120F1B7F74120F83E4FF120F1BAF48
:100C4E0022120F1B7F77120F837F7C120F1B7F7573
:100C5E00120F83AF45120F1BAF47120F1B7F771278
:100C6E000F837FBE120F1B7F76120F83E52324F0B6
:100C7E007007AF23120F1B80057F04120F1BE4FFBA
:040C8E00120F1B2204
:100F6400E4FF120F1B7F10120F837F11120F8322D5
:100C92007F11120F83120F64120F64120F64AF23BD
:100CA200120F1B7F10120F83E548700B7F11120F7A
:100CB200837F30120F83227F11120F83120F64126F
:100CC2000F64120F64E4FF120F1B7F10120F837F59
:100CD20011120F83E5237007AF23120F1B80057FCC
:100CE200FE120F1B7F10120F837F11120F837F30B2
:040CF200120F832238
:090FAA00E4FF0000000FBF21F973
:010FB300221B
:0E0F92007F23120F837F40120F1B120FAA2223
:100D7F00120F927F60120F1B7F21120F837FA01221
:100D8F000F1B120F927F21120F83AF44120F1B12F2
:100D9F000F927F21120F83AF23120F1B120F927F1F
:0A0DAF0050120F1B7F30120F832239
:100EBF00C0E0C083C082D2015391EF90E65D740110
:080ECF00F0D082D083D0E032A4
:100EEF00C0E0C083C0825391EF90E65D7404F0D0F0
:060EFF0082D083D0E03236
:100F0500C0E0C083C0825391EF90E65D7402F0D0DB
:060F150082D083D0E0321F
:100DB900C0E0C083C08285534F85545085508285D9
:100DC9004F83A37402F0854B51854C52855282851D
:100DD9005183A37407F05391EF90E65D7410F0D03E
:060DE90082D083D0E0324D
:100ED700C0E0C083C082D2035391EF90E65D7408EF
:080EE700F0D082D083D0E0328C
:100D4200C0E0C083C08290E680E030E720854B4F50
:100D5200854C50855082854F83A37402F085535190
:100D6200855452855282855183A37407F05391EFC3
:0D0D720090E65D7420F0D082D083D0E03296
:0109FF0032C5
:010FD40032EA
:010FD50032E9
:010FD60032E8
:010FD70032E7
:010FD80032E6
:010FD90032E5
:010FDA0032E4
:010FDB0032E3
:010FDC0032E2
:010FDD0032E1
:010FDE0032E0
:010FDF0032DF
:010FE00032DE
:010FE10032DD
:010FE20032DC
:010FE30032DB
:010FE40032DA
:010FE50032D9
:010FE60032D8
:010FE70032D7
:010FE80032D6
:010FE90032D5
:010FEA0032D4
:010FEB0032D3
:010FEC0032D2
:010FED0032D1
:010FEE0032D0
:010FEF0032CF
:010FF00032CE
:010FF10032CD
:010FF20032CC
:010FF30032CB
:010FF40032CA
:010FF50032C9
:010FF60032C8
:100F1B0090E6C0741BF0000000E5BB30E7FB90E6E9
:040F2B00F1EFF022D0
:0F0F830090E6C074BBF000000090E6F1EFF022A2
:03000000020B3DB3
:0C0B3D00787FE4F6D8FD758158020B8427
:100F5300EB9FF5F0EA9E42F0E99D42F0E89C45F0F4
:010F6300226B
:100B4900020597E493A3F8E493A34003F68001F226
:100B590008DFF48029E493A3F85407240CC8C333AD
:100B6900C4540F4420C8834004F456800146F6DF7C
:100B7900E4800B0102040810204080900AA4E47E5E
:100B8900019360BCA3FF543F30E509541FFEE49371
:100B9900A360010ECF54C025E060A840B8E493A338
:100BA900FAE493A3F8E493A3C8C582C8CAC583CA63
:100BB900F0A3C8C582C8CAC583CADFE9DEE780BE1B
:010B3C0000B8
:00000001FF
